:020000040000FA
:02000000FD2BD6
:10067A008316851605128312051608008312A50132
:10068A0083169F0183129F010730990083169901EF
:10069A00403090003D2383120515A601542B9F2359
:1006AA008312A4002408A60026085E23542B542B88
:1006BA0000288312A1008B130B130512A630A00089
:1006CA00662BA00B652B692B8312A201083022022C
:1006DA00031C702B712B732B952B952B2108A000D3
:1006EA00220A792B0310A00CFF3E031D772B201C36
:1006FA007F2B802B822B0516842B0512842BA63088
:10070A00A000872BA00B862B8A2B01308312A00016
:10071A002008A20708302202031C942B952B732B66
:10072A000516A630A000992BA00B982B9C2B8B1793
:10073A000B1708008B130B138312A201A42B851A23
:10074A00A72BA82BA42BA92BA630A000AC2BA00B5F
:10075A00AB2BAF2B8A308312A000A00BB22B000068
:10076A008312A30108302302031CBC2BBD2BBF2B11
:10077A00E22BE22B851EC22BC32BD12B0130A0000A
:10078A00230AC92B0310A00DFF3E031DC72B200807
:10079A00A1002108A207D12BA630A000D42BA00BC0
:1007AA00D32BD72B01308312A0002008A3070830CF
:1007BA002302031CE12BE22BBF2B851EE52BE62B24
:1007CA00F22B8A30A000A00BE82B00008B170B1726
:1007DA0083122208FC2BFC2BFC2B8A30A000A00BD6
:1007EA00F42B00008B170B170030FC2BFC2B080096
:0407FA008301432B09
:02400E008431FB
:00000001FF
